:020000040800F2
:1000000000500020BD090008B1080008B70800082A
:10001000BD080008C3080008C90800080000000067
:10002000000000000000000000000000CF080008F1
:10003000DB08000800000000E7080008F3080008DB
:10004000050A0008050A0008050A0008050A000854
:10005000050A0008FF080008050A00080B09000847
:10006000050A0008050A0008050A0008050A000834
:10007000050A0008050A0008050A0008050A000824
:10008000050A0008050A0008050A0008050A000814
:10009000050A0008050A0008050A0008050A000804
:1000A000050A000819090008050A0008050A0008E1
:1000B0002D09000841090008050A0008050A000882
:1000C000050A0008050A0008050A0008050A0008D4
:1000D000050A0008050A0008050A0008050A0008C4
:1000E000050A0008050A0008050A000800000000CB
:1000F0000000000000000000000000000000000000
:0C01000000000000000000005FF808F1A3
:10010C0010B5054C237833B9044B13B10448AFF345
:10011C0000800123237010BD0C00002000000000A3
:10012C009C25000808B5034B1BB103490348AFF3EA
:10013C00008008BD00000000100000209C25000875
:10014C0080B483B000AF0346FB7197F90730002BE6
:10015C000CDBFB7903F01F02074997F907305B09A9
:10016C00012000FA02F2603341F8232000BF0C3763
:10017C00BD4680BC704700BF00E100E080B500AF19
:10018C0002212B4800F060FF0346002B0CBF01231B
:10019C000023DAB2274B1A70264B1B78DBB2002BEC
:1001AC001BD0254B1B78DBB283F00103DBB2002B99
:1001BC0013D0214B01221A70204BDB681F4A23F00D
:1001CC000203D3601D4B9B681C4A43F002039360EF
:1001DC001B4B44F62062DA621FE0164B1B78DBB235
:1001EC0083F00103DBB2002B0BD0134B1B78DBB27B
:1001FC0083F00103DBB2002B03D0124801F0BAFBF1
:10020C000BE00C4B1B78DBB2002B06D00A4B1B7897
:10021C00DBB2002B01D000F04DF8084B02225A61E2
:10022C002820FFF78DFF282000F061FD00BF80BD66
:10023C000008014028000020EC00002000040140D0
:10024C0000040040AC00002080B500AF4FF400511A
:10025C00134800F028FF134B00221A70124BDB6876
:10026C00114A43F00203D3600F4B9B680E4A23F0F4
:10027C00020393600D4B4FF47A72DA620B4B00223F
:10028C005A620B4801F076FB074B02225A61282078
:10029C00FFF756FF282000F02AFD00BF80BD00BFED
:1002AC0000100140EC00002000040140000400405C
:1002BC00AC00002080B500AF4FF40051114800F0A5
:1002CC00F2FE114B00221A70104BDB680F4A43F000
:1002DC000203D3600D4B9B680C4A23F0020393601E
:1002EC000B4B4FF47A72DA620A4801F043FB074B6E
:1002FC0002225A612820FFF723FF282000F0F7FC88
:10030C0000BF80BD00100140EC0000200004014043
:10031C0000040040AC00002080B582B000AF034662
:10032C00FB80FB88022B19D10F4B1B78DBB283F0BF
:10033C000103DBB2002B06D0282000F0E6FC0B48B2
:10034C0001F0F5FA0DE0084B1B78DBB2002B07D05F
:10035C00282000F0DAFCFFF777FF02E000BF00E096
:10036C0000BF0837BD4680BDEC000020AC0000206B
:10037C0080B500AF00F042FB00F009F800F046F940
:10038C0000F04AF800F09AF800F0F2F8FEE780B5B9
:10039C0090B000AF07F1180328220021184602F094
:1003AC00CBF83B1D00221A605A609A60DA601A6121
:1003BC000123BB614FF48033FB6100233B620123BB
:1003CC00BB6202237B634FF48033BB634FF4E013B7
:1003DC00FB6307F11803184600F096FE0346002B4A
:1003EC0001D000F077F90F237B600223BB608023E0
:1003FC00FB604FF480633B6100237B613B1D02215A
:10040C00184601F003F90346002B01D000F062F905
:10041C0000BF4037BD4680BD80B586B000AF07F148
:10042C00080300221A605A609A60DA603B46002288
:10043C001A605A601F4B204A1A601E4B4FF46162BF
:10044C005A601C4B00229A601A4B41F28832DA60D7
:10045C00184B00221A61174B00225A61154B0022CF
:10046C009A61144801F038FA0346002B01D000F0D1
:10047C0031F94FF48053BB6007F1080319460D485E
:10048C0001F09CFC0346002B01D000F023F9002363
:10049C003B6000237B603B461946064801F0F6FFA3
:1004AC000346002B01D000F015F900BF1837BD46EC
:1004BC0080BD00BF2C000020002C014080B58AB00C
:1004CC0000AF07F1200300221A605A603B1D002286
:1004DC001A605A609A60DA601A615A619A61234B09
:1004EC004FF080421A60214B00225A601F4B0022B1
:1004FC009A601E4B42F24132DA601C4B00221A61A8
:10050C001A4B00229A61194801F05EFA0346002B3F
:10051C0001D000F0DFF800233B6200237B6207F17F
:10052C0020031946114801F0B1FF0346002B01D0FE
:10053C0000F0D0F860237B604FF40D63BB600023A8
:10054C00FB6000237B613B1D00221946074801F02C
:10055C006FFB0346002B01D000F0BCF8034800F001
:10056C005FF900BF2837BD4680BD00BF6C0000207E
:10057C0080B586B000AF07F1080300221A605A60FC
:10058C009A60DA603B4600221A605A601D4B1E4A84
:10059C001A601C4B4FF461625A601A4B00229A602D
:1005AC00184B4FF4FA72DA60164B00221A61154B95
:1005BC0000229A61134801F08FF90346002B01D0F9
:1005CC0000F088F84FF48053BB6007F1080319461C
:1005DC000C4801F0F3FB0346002B01D000F07AF835
:1005EC0000233B6000237B603B461946054801F025
:1005FC004DFF0346002B01D000F06CF800BF1837FC
:10060C00BD4680BDAC0000200004004080B588B021
:10061C0000AF07F1100300221A605A609A60DA608A
:10062C00284B9B69274A43F010039361254B9B6928
:10063C0003F01003FB60FB68224B9B69214A43F0DB
:10064C00200393611F4B9B6903F02003BB60BB68C5
:10065C001C4B9B691B4A43F004039361194B9B6928
:10066C0003F004037B607B6800224FF400511648B2
:10067C0000F001FD4FF400533B6101237B6100232B
:10068C00BB610223FB6107F1100319460E4800F011
:10069C0057FB02233B610D4B7B610123BB6107F1CF
:1006AC00100319460A4800F04BFB002200210720DA
:1006BC0000F001FB072000F01AFB00BF2037BD46FD
:1006CC0080BD00BF0010024000100140000021104E
:1006DC000008014080B400AF72B600BFFEE7000016
:1006EC0080B584B000AF194B9B69184A43F00103E5
:1006FC009361164B9B6903F00103BB60BB68134B02
:10070C00DB69124A43F08053D361104BDB6903F071
:10071C0080537B607B6800220021052000F0CBFA1F
:10072C00052000F0E4FA0A4B5B68FB60FB6823F0E1
:10073C00E063FB60FB6843F00073FB60044AFB68FA
:10074C00536000BF1037BD4680BD00BF0010024093
:10075C000000014080B584B000AF78607B681B68F6
:10076C001A4A934214D11A4B9B69194A43F40063F9
:10077C009361174B9B6903F40063FB60FB680022D9
:10078C000021192000F097FA192000F0B0FA18E0B7
:10079C007B681B680F4A934213D10D4BDB690C4AE3
:1007AC0043F00203D3610A4BDB6903F00203BB6025
:1007BC00BB68002200211D2000F07DFA1D2000F0F6
:1007CC0096FA00BF1037BD4680BD00BF002C01401B
:1007DC00001002400004004080B584B000AF786087
:1007EC007B681B68B3F1804F13D10C4BDB690B4A50
:1007FC0043F00103D361094BDB6903F00103FB6098
:10080C00FB68002200211C2000F055FA1C2000F08F
:10081C006EFA00BF1037BD4680BD00BF001002400D
:10082C0080B588B000AF786007F1100300221A6021
:10083C005A609A60DA607B681B68B3F1804F17D1FD
:10084C000D4B9B690C4A43F0040393610A4B9B6963
:10085C0003F00403FB60FB6801233B6102237B6113
:10086C000223FB6107F110031946044800F068FAF3
:10087C0000BF2037BD4680BD00100240000801407B
:10088C0080B582B000AF78607B681B68044A9342E5
:10089C0001D1FFF773FC00BF0837BD4680BD00BF18
:1008AC000004004080B400AFFEE780B400AFFEE768
:1008BC0080B400AFFEE780B400AFFEE780B400AFB9
:1008CC00FEE780B400AF00BFBD4680BC704780B46B
:1008DC0000AF00BFBD4680BC704780B400AF00BF06
:1008EC00BD4680BC704780B500AF00F0CDF800BFAE
:1008FC0080BD80B400AF00BFBD4680BC704780B5E2
:10090C0000AF022000F0E8FB00BF80BD80B500AF57
:10091C00024801F084F800BF80BD00BF2C0000200D
:10092C0080B500AF024801F07AF800BF80BD00BF6F
:10093C006C00002080B500AF024801F070F800BFD9
:10094C0080BD00BFAC00002080B400AF154B1B680D
:10095C00144A43F001031360124B5A681149124BAD
:10096C0013404B600F4B1B680E4A23F0847323F427
:10097C00803313600B4B1B680A4A23F480231360EB
:10098C00084B5B68074A23F4FE035360054B4FF496
:10099C001F029A60054B4FF000629A6000BFBD4683
:1009AC0080BC7047001002400000FFF800ED00E032
:1009BC00002103E00B4B5B58435004310A480B4BAE
:1009CC0042189A42F6D30A4A02E0002342F8043B4A
:1009DC00084B9A42F9D3FFF7B7FF01F0B5FDFFF7CB
:1009EC00C7FC7047DC250008000000200C0000202C
:1009FC000C000020F4000020FEE7000080B500AFE2
:100A0C00084B1B68074A43F010031360032000F0E7
:100A1C0047F90F2000F008F8FFF762FE0023184694
:100A2C0080BD00BF0020024080B582B000AF78606E
:100A3C00124B1A68124B1B7819464FF47A73B3FB9E
:100A4C00F1F3B2FBF3F3184600F06DF90346002BFB
:100A5C0001D001230EE07B680F2B0AD800227968A5
:100A6C004FF0FF3000F027F9064A7B681360002333
:100A7C0000E0012318460837BD4680BD0000002069
:100A8C00080000200400002080B400AF054B1B7848
:100A9C001A46054B1B681344034A136000BFBD463E
:100AAC0080BC704708000020F000002080B400AF2C
:100ABC00024B1B681846BD4680BC7047F0000020F6
:100ACC0080B485B000AF78607B6803F00703FB60EF
:100ADC000C4BDB68BB60BA684FF6FF031340BB607E
:100AEC00FB681A02BB68134343F0BF6343F4003343
:100AFC00BB60044ABB68D36000BF1437BD4680BCE2
:100B0C00704700BF00ED00E080B400AF044BDB6821
:100B1C001B0A03F007031846BD4680BC704700BF94
:100B2C0000ED00E080B483B000AF0346FB7197F991
:100B3C000730002B0BDBFB7903F01F02064997F9FA
:100B4C0007305B09012000FA02F241F8232000BFB4
:100B5C000C37BD4680BC704700E100E080B483B028
:100B6C0000AF0346FB7197F90730002B12DBFB79C2
:100B7C0003F01F020A4997F907305B09012000FABC
:100B8C0002F2203341F82320BFF34F8F00BFBFF395
:100B9C006F8F00BF00BF0C37BD4680BC704700BFD5
:100BAC0000E100E080B483B000AF03463960FB7114
:100BBC0097F90730002B0ADB3B68DAB20C4997F93E
:100BCC0007301201D2B20B4483F800230AE03B68D1
:100BDC00DAB20849FB7903F00F03043B1201D2B2DD
:100BEC000B441A7600BF0C37BD4680BC704700BF63
:100BFC0000E100E000ED00E080B489B000AFF860E7
:100C0C00B9607A60FB6803F00703FB61FB69C3F111
:100C1C000703042B28BF0423BB61FB690433062B99
:100C2C0002D9FB69033B00E000237B614FF0FF32EC
:100C3C00BB6902FA03F3DA43BB681A407B699A403A
:100C4C004FF0FF317B6901FA03F3D9437B680B400A
:100C5C00134318462437BD4680BC704780B582B01C
:100C6C0000AF78607B68013BB3F1807F01D3012337
:100C7C000FE00A4A7B68013B53600F214FF0FF30B5
:100C8C00FFF790FF054B00229A60044B07221A6075
:100C9C00002318460837BD4680BD00BF10E000E0B9
:100CAC0080B582B000AF78607868FFF709FF00BFAD
:100CBC000837BD4680BD80B586B000AF0346B9602D
:100CCC007A60FB7300237B61FFF71EFF78617A6803
:100CDC00B9687869FFF790FF024697F90F30114613
:100CEC001846FFF75FFF00BF1837BD4680BD80B5C3
:100CFC0082B000AF0346FB7197F907301846FFF737
:100D0C0011FF00BF0837BD4680BD80B582B000AF73
:100D1C000346FB7197F907301846FFF71FFF00BF1A
:100D2C000837BD4680BD80B582B000AF786078686A
:100D3C00FFF794FF034618460837BD4680BD0000F8
:100D4C0080B48BB000AF7860396000237B620023E5
:100D5C003B6269E101227B6A02FA03F3FB613B68A7
:100D6C001B68FA691340BB61BA69FB699A4240F08F
:100D7C0058813B685B689A4A93425ED0984A93428A
:100D8C0075D8984A934258D0964A93426FD8964A4F
:100D9C00934252D0944A934269D8944A93424CD08D
:100DAC00924A934263D8924A934246D0904A9342D5
:100DBC005DD8122B2AD8122B59D801A252F823F045
:100DCC00470E0008210E0008330E0008750E0008AF
:100DDC007B0E00087B0E00087B0E00087B0E0008C3
:100DEC007B0E00087B0E00087B0E00087B0E0008B3
:100DFC007B0E00087B0E00087B0E00087B0E0008A3
:100E0C007B0E0008290E00083D0E0008794A93421B
:100E1C0013D02CE03B68DB683B6229E03B68DB6865
:100E2C0004333B6224E03B68DB6808333B621FE021
:100E3C003B68DB680C333B621AE03B689B68002B19
:100E4C0002D104233B6213E03B689B68012B05D164
:100E5C0008233B627B68FA691A6109E008233B624C
:100E6C007B68FA695A6103E000233B6200E000BF33
:100E7C00BB69FF2B01D87B6801E07B6804337B6185
:100E8C00BB69FF2B02D87B6A9B0002E07B6A083BA4
:100E9C009B003B617B691A680F213B6901FA03F3E4
:100EAC00DB431A40396A3B6901FA03F31A437B6945
:100EBC001A603B685B6803F08053002B00F0B18034
:100ECC004D4B9B694C4A43F0010393614A4B9B6920
:100EDC0003F00103BB60BB68484A7B6A9B08023382
:100EEC0052F82330FB607B6A03F003039B000F2254
:100EFC0002FA03F3DB43FA681340FB607B68404A59
:100F0C00934213D07B683F4A93420DD07B683E4A94
:100F1C00934207D07B683D4A934201D1032306E0FC
:100F2C00042304E0022302E0012300E000237A6A98
:100F3C0002F0030292009340FA681343FB602F49BE
:100F4C007B6A9B080233FA6841F823203B685B6894
:100F5C0003F48033002B06D02D4B1A682C49BB6947
:100F6C0013430B6006E02A4B1A68BB69DB43284924
:100F7C0013400B603B685B6803F40033002B06D016
:100F8C00234B5A682249BB6913434B6006E0204B44
:100F9C005A68BB69DB431E4913404B603B685B6876
:100FAC0003F48013002B06D0194B9A681849BB69BF
:100FBC0013438B6006E0164B9A68BB69DB431449FC
:100FCC0013408B603B685B6803F40013002B21D04B
:100FDC000F4BDA680E49BB691343CB6021E000BFAD
:100FEC00000032100000311000002210000021100F
:100FFC00000012100000111000100240000001400F
:10100C0000080140000C0140001001400014014098
:10101C00000401400B4BDA68BB69DB430949134000
:10102C00CB607B6A01337B623B681A687B6A22FA6D
:10103C0003F3002B7FF48EAE00BF00BF2C37BD46F0
:10104C0080BC70470004014080B485B000AF78606C
:10105C000B467B807B689A687B881340002B02D000
:10106C000123FB7301E00023FB73FB7B1846143751
:10107C00BD4680BC704780B483B000AF78600B462F
:10108C007B8013467B707B78002B03D07A887B683F
:10109C001A6103E07B881A047B681A6100BF0C3765
:1010AC00BD4680BC704780B483B000AF78600B46FF
:1010BC007B807B68DA687B881340002B03D07A88AE
:1010CC007B685A6102E07A887B681A6100BF0C3732
:1010DC00BD4680BC7047000080B582B000AF0346AF
:1010EC00FB80084B5A69FB881340002B06D0054A3D
:1010FC00FB885361FB881846FFF70EF900BF0837D1
:10110C00BD4680BD0004014080B586B000AF78605C
:10111C007B68002B01D1012372E27B681B6803F012
:10112C000103002B00F08780924B5B6803F00C03EB
:10113C00042B0CD08F4B5B6803F00C03082B12D1E3
:10114C008C4B5B6803F48033B3F5803F0BD1894B38
:10115C001B6803F40033002B6CD07B685B68002B9E
:10116C0068D101234CE27B685B68B3F5803F06D104
:10117C00804B1B687F4A43F4803313602EE07B68FE
:10118C005B68002B0CD17B4B1B687A4A23F48033B1
:10119C001360784B1B68774A23F4802313601DE09F
:1011AC007B685B68B3F5A02F0CD1724B1B68714A3E
:1011BC0043F4802313606F4B1B686E4A43F48033F7
:1011CC0013600BE06B4B1B686A4A23F4803313608B
:1011DC00684B1B68674A23F4802313607B685B6849
:1011EC00002B13D0FFF762FC386108E0FFF75EFCC0
:1011FC0002463B69D31A642B01D9032300E25D4BF1
:10120C001B6803F40033002BF0D014E0FFF74EFC06
:10121C00386108E0FFF74AFC02463B69D31A642B9D
:10122C0001D90323ECE1534B1B6803F40033002B6F
:10123C00F0D100E000BF7B681B6803F00203002BB9
:10124C0063D04C4B5B6803F00C03002B0BD0494B69
:10125C005B6803F00C03082B1CD1464B5B6803F452
:10126C008033002B16D1434B1B6803F00203002B79
:10127C0005D07B681B69012B01D00123C0E13D4BDC
:10128C001B6823F0F8027B685B69DB003949134368
:10129C000B603AE07B681B69002B20D0364B012297
:1012AC001A60FFF703FC386108E0FFF7FFFB02460A
:1012BC003B69D31A022B01D90323A1E12D4B1B68E7
:1012CC0003F00203002BF0D02A4B1B6823F0F8022A
:1012DC007B685B69DB00274913430B6015E0264BE9
:1012EC0000221A60FFF7E2FB386108E0FFF7DEFB33
:1012FC0002463B69D31A022B01D9032380E11D4B13
:10130C001B6803F00203002BF0D17B681B6803F011
:10131C000803002B3AD07B689B69002B19D0174B24
:10132C0001221A60FFF7C2FB386108E0FFF7BEFB31
:10133C0002463B69D31A022B01D9032360E10D4B02
:10134C005B6A03F00203002BF0D0012000F0A6FA38
:10135C001CE00A4B00221A60FFF7A8FB38610FE073
:10136C00FFF7A4FB02463B69D31A022B08D90323CF
:10137C0046E100BF0010024000004242800442429D
:10138C00924B5B6A03F00203002BE9D17B681B686C
:10139C0003F00403002B00F0A6800023FB758B4B9D
:1013AC00DB6903F08053002B0DD1884BDB69874A36
:1013BC0043F08053D361854BDB6903F08053BB60F2
:1013CC00BB680123FB75824B1B6803F48073002BF5
:1013DC0018D17F4B1B687E4A43F480731360FFF770
:1013EC0065FB386108E0FFF761FB02463B69D31AE5
:1013FC00642B01D9032303E1754B1B6803F4807341
:10140C00002BF0D07B68DB68012B06D16F4B1B6A7D
:10141C006E4A43F0010313622DE07B68DB68002BFE
:10142C000CD16A4B1B6A694A23F001031362674BA8
:10143C001B6A664A23F0040313621CE07B68DB68BA
:10144C00052B0CD1614B1B6A604A43F004031362F9
:10145C005E4B1B6A5D4A43F0010313620BE05B4B6E
:10146C001B6A5A4A23F001031362584B1B6A574AF2
:10147C0023F0040313627B68DB68002B15D0FFF7A5
:10148C0015FB38610AE0FFF711FB02463B69D31AE2
:10149C0041F28832934201D90323B1E04B4B1B6AD2
:1014AC0003F00203002BEED014E0FFF7FFFA3861D3
:1014BC000AE0FFF7FBFA02463B69D31A41F2883285
:1014CC00934201D903239BE0404B1B6A03F00203B8
:1014DC00002BEED1FB7D012B05D13C4BDB693B4A4C
:1014EC0023F08053D3617B68DB69002B00F087808D
:1014FC00364B5B6803F00C03082B61D07B68DB690F
:10150C00022B46D1334B00221A60FFF7CFFA386119
:10151C0008E0FFF7CBFA02463B69D31A022B01D93C
:10152C0003236DE0294B1B6803F00073002BF0D1F3
:10153C007B681B6AB3F5803F08D1244B5B6823F4AE
:10154C0000327B689B68214913434B601F4B5B68DF
:10155C0023F474127B68196A7B685B6A0B431B4922
:10156C0013434B601B4B01221A60FFF79FFA386143
:10157C0008E0FFF79BFA02463B69D31A022B01D90C
:10158C0003233DE0114B1B6803F00073002BF0D0DC
:10159C0035E0104B00221A60FFF788FA386108E03A
:1015AC00FFF784FA02463B69D31A022B01D90323B5
:1015BC0026E0064B1B6803F00073002BF0D11EE0F5
:1015CC007B68DB69012B07D1012319E00010024075
:1015DC0000700040600042420B4B5B68FB60FB6894
:1015EC0003F480327B681B6A9A4206D1FB6803F4D1
:1015FC0070127B685B6A9A4201D0012300E00023E1
:10160C0018461837BD4680BD0010024080B584B026
:10161C0000AF786039607B68002B01D10123D0E0EA
:10162C006A4B1B6803F007033A689A4210D9674B60
:10163C001B6823F0070265493B6813430B60634B3F
:10164C001B6803F007033A689A4201D00123B8E003
:10165C007B681B6803F00203002B20D07B681B689F
:10166C0003F00403002B05D0594B5B68584A43F434
:10167C00E06353607B681B6803F00803002B05D004
:10168C00534B5B68524A43F460535360504B5B6856
:10169C0023F0F0027B689B684D4913434B607B68D9
:1016AC001B6803F00103002B40D07B685B68012BA7
:1016BC0007D1474B1B6803F40033002B15D10123D2
:1016CC007FE07B685B68022B07D1414B1B6803F002
:1016DC000073002B09D1012373E03D4B1B6803F011
:1016EC000203002B01D101236BE0394B5B6823F023
:1016FC0003027B685B68364913434B60FFF7D6F9EE
:10170C00F8600AE0FFF7D2F90246FB68D31A41F2FF
:10171C008832934201D9032353E02D4B5B6803F0CD
:10172C000C027B685B689B009A42EBD1274B1B68D1
:10173C0003F007033A689A4210D2244B1B6823F03B
:10174C00070222493B6813430B60204B1B6803F0D4
:10175C0007033A689A4201D0012332E07B681B6888
:10176C0003F00403002B08D0194B5B6823F4E062F0
:10177C007B68DB68164913434B607B681B6803F07E
:10178C000803002B09D0124B5B6823F460527B6872
:10179C001B69DB000E4913434B6000F021F8024635
:1017AC000B4B5B681B0903F00F030A49CB5C22FA55
:1017BC0003F3094A1360094B1B681846FFF734F909
:1017CC00002318461037BD4680BD00BF00200240E4
:1017DC0000100240C4250008000000200400002076
:1017EC0090B48AB000AF294B3C1D0FCB84E80F009E
:1017FC0040F201233B800023FB610023BB610023EB
:10180C007B6200237B6100233B62214B5B68FB61A5
:10181C00FB6903F00C03042B02D0082B03D02BE044
:10182C001C4B3B622BE0FB699B0C03F00F03283332
:10183C003B4413F8243C7B61FB6903F48033002B9D
:10184C0012D0134B5B685B0C03F0010328333B4451
:10185C0013F8283CBB617B690E4A03FB02F2BB699F
:10186C00B2FBF3F37B6204E07B690B4A02FB03F3EC
:10187C007B627B6A3B6202E0064B3B6200BF3B6AC9
:10188C0018462837BD4690BC704700BFB4250008E9
:10189C000010024000127A0000093D0080B485B0AF
:1018AC0000AF78600A4B1B680A4AA2FB03235B0A51
:1018BC007A6802FB03F3FB6000BFFB685A1EFA60F8
:1018CC00002BF9D100BF00BF1437BD4680BC704758
:1018DC0000000020D34D621080B582B000AF78605C
:1018EC007B68002B01D101231DE07B6893F83D3010
:1018FC00DBB2002B06D17B68002283F83C20786891
:10190C00FEF728FF7B68022283F83D207B681A686B
:10191C007B6804331946104600F038FB7B680122C3
:10192C0083F83D20002318460837BD4680BD80B49F
:10193C0085B000AF78607B681B68DA687B681B68D1
:10194C0042F00102DA607B681B689B6803F00703B6
:10195C00FB60FB68062B07D07B681B681A687B68EA
:10196C001B6842F001021A60002318461437BD466A
:10197C0080BC704780B483B000AF78607B681B6814
:10198C00DA687B681B6822F00102DA607B681B68EE
:10199C001A6A41F211131340002B0FD17B681B689C
:1019AC001A6A40F244431340002B07D17B681B6832
:1019BC001A687B681B6822F001021A600023184623
:1019CC000C37BD4680BC704780B582B000AF7860E4
:1019DC007B68002B01D101231DE07B6893F83D301F
:1019EC00DBB2002B06D17B68002283F83C207868A0
:1019FC00FEF7F2FE7B68022283F83D207B681A68B2
:101A0C007B6804331946104600F0C0FA7B6801224B
:101A1C0083F83D20002318460837BD4680BD80B5AD
:101A2C0082B000AF78607B681B681B6903F002030F
:101A3C00022B22D17B681B68DB6803F00203022BAC
:101A4C001BD17B681B686FF002021A617B68012254
:101A5C001A777B681B689B6903F00303002B03D088
:101A6C00786800F078FA05E0786800F06BFA78682E
:101A7C0000F07AFA7B6800221A777B681B681B6976
:101A8C0003F00403042B22D17B681B68DB6803F092
:101A9C000403042B1BD17B681B686FF004021A61D2
:101AAC007B6802221A777B681B689B6903F440737E
:101ABC00002B03D0786800F04EFA05E0786800F04F
:101ACC0041FA786800F050FA7B6800221A777B683C
:101ADC001B681B6903F00803082B22D17B681B6869
:101AEC00DB6803F00803082B1BD17B681B686FF0C5
:101AFC0008021A617B6804221A777B681B68DB6911
:101B0C0003F00303002B03D0786800F024FA05E0FF
:101B1C00786800F017FA786800F026FA7B680022E3
:101B2C001A777B681B681B6903F01003102B22D1FA
:101B3C007B681B68DB6803F01003102B1BD17B68E0
:101B4C001B686FF010021A617B6808221A777B6899
:101B5C001B68DB6903F44073002B03D0786800F03A
:101B6C00FAF905E0786800F0EDF9786800F0FCF916
:101B7C007B6800221A777B681B681B6903F00103E2
:101B8C00012B0ED17B681B68DB6803F00103012B72
:101B9C0007D17B681B686FF001021A617868FEF749
:101BAC006FFE7B681B681B6903F08003802B0ED1D2
:101BBC007B681B68DB6803F08003802B07D17B6894
:101BCC001B686FF080021A61786800F0ACFC7B68CF
:101BDC001B681B6903F04003402B0ED17B681B680C
:101BEC00DB6803F04003402B07D17B681B686FF068
:101BFC0040021A61786800F0C0F97B681B681B69A9
:101C0C0003F02003202B0ED17B681B68DB6803F0EC
:101C1C002003202B07D17B681B686FF020021A6110
:101C2C00786800F077FC00BF0837BD4680BD000027
:101C3C0080B584B000AFF860B9607A60FB6893F847
:101C4C003C30012B01D10223B4E0FB68012283F864
:101C5C003C20FB68022283F83D207B680C2B00F2B1
:101C6C009F8001A252F823F0A91C0008AD1D0008AA
:101C7C00AD1D0008AD1D0008E91C0008AD1D0008D5
:101C8C00AD1D0008AD1D00082B1D0008AD1D000882
:101C9C00AD1D0008AD1D00086B1D0008FB681B681E
:101CAC00B968184600F0D4F9FB681B689A69FB68A0
:101CBC001B6842F008029A61FB681B689A69FB6812
:101CCC001B6822F004029A61FB681B689969BB6867
:101CDC001A69FB681B680A439A6162E0FB681B681F
:101CEC00B968184600F01AFAFB681B689A69FB6819
:101CFC001B6842F400629A61FB681B689A69FB6876
:101D0C001B6822F480629A61FB681B689969BB6846
:101D1C001B691A02FB681B680A439A6141E0FB6865
:101D2C001B68B968184600F063FAFB681B68DA692F
:101D3C00FB681B6842F00802DA61FB681B68DA6911
:101D4C00FB681B6822F00402DA61FB681B68D96926
:101D5C00BB681A69FB681B680A43DA6121E0FB68FF
:101D6C001B68B968184600F0ADFAFB681B68DA69A5
:101D7C00FB681B6842F40062DA61FB681B68DA6975
:101D8C00FB681B6822F48062DA61FB681B68D96906
:101D9C00BB681B691A02FB681B680A43DA6100E026
:101DAC0000BFFB68012283F83D20FB68002283F80A
:101DBC003C20002318461037BD4680BD80B584B04A
:101DCC0000AF786039607B6893F83C30012B01D10F
:101DDC000223B3E07B68012283F83C207B6802225B
:101DEC0083F83D207B681B689B68FB60FB6823F0D5
:101DFC007703FB60FB6823F47F43FB607B681B6805
:101E0C00FA689A603B681B68B3F5005F3ED0B3F587
:101E1C00005F00F28780B3F5805F00F08580B3F53A
:101E2C00805F7FD8702B1AD0702B7BD8602B50D052
:101E3C00602B77D8502B3CD0502B73D8402B58D0DC
:101E4C00402B6FD8302B64D0302B6BD8202B60D02C
:101E5C00202B67D8002B5CD0102B5AD062E07B680B
:101E6C0018683B6899683B685A683B68DB6800F007
:101E7C00EEFA7B681B689B68FB60FB6843F077039A
:101E8C00FB607B681B68FA689A604EE07B68186898
:101E9C003B6899683B685A683B68DB6800F0D7FA86
:101EAC007B681B689A687B681B6842F480429A6066
:101EBC003BE07B6818683B6859683B68DB681A46EE
:101ECC0000F04EFA7B681B685021184600F0A5FA0A
:101EDC002BE07B6818683B6859683B68DB681A46DE
:101EEC0000F06CFA7B681B686021184600F095FACC
:101EFC001BE07B6818683B6859683B68DB681A46CE
:101F0C0000F02EFA7B681B684021184600F085FA19
:101F1C000BE07B681A683B681B681946104600F09A
:101F2C007CFA02E000BF00E000BF7B68012283F86E
:101F3C003D207B68002283F83C2000231846103794
:101F4C00BD4680BD80B483B000AF786000BF0C3755
:101F5C00BD4680BC704780B483B000AF786000BFD2
:101F6C000C37BD4680BC704780B483B000AF78603E
:101F7C0000BF0C37BD4680BC704780B483B000AF47
:101F8C00786000BF0C37BD4680BC704780B485B00C
:101F9C0000AF786039607B681B68FB607B68294AFE
:101FAC0093420BD07B68B3F1804F07D07B68264AF5
:101FBC00934203D07B68254A934208D1FB6823F0F7
:101FCC007003FB603B685B68FA681343FB607B68DB
:101FDC001C4A93420BD07B68B3F1804F07D07B68CF
:101FEC00194A934203D07B68184A934208D1FB6884
:101FFC0023F44073FB603B68DB68FA681343FB60B7
:10200C00FB6823F080023B685B691343FB607B68D1
:10201C00FA681A603B689A687B68DA623B681A68EF
:10202C007B689A627B68074A934203D13B681A69C2
:10203C007B681A637B6801225A6100BF1437BD4666
:10204C0080BC7047002C0140000400400008004098
:10205C0080B487B000AF786039607B681B6A23F06E
:10206C0001027B681A627B681B6A7B617B685B6818
:10207C003B617B689B69FB60FB6823F07003FB6032
:10208C00FB6823F00303FB603B681B68FA6813438F
:10209C00FB607B6923F002037B613B689B687A6978
:1020AC0013437B617B681C4A93420CD17B6923F000
:1020BC0008037B613B68DB687A6913437B617B694E
:1020CC0023F004037B617B68134A934211D13B6973
:1020DC0023F480733B613B6923F400733B613B68E1
:1020EC005B693A6913433B613B689B693A691343EB
:1020FC003B617B683A695A607B68FA689A613B6815
:10210C005A687B685A637B687A691A6200BF1C370D
:10211C00BD4680BC704700BF002C014080B487B026
:10212C0000AF786039607B681B6A23F010027B6813
:10213C001A627B681B6A7B617B685B683B617B68AE
:10214C009B69FB60FB6823F4E043FB60FB6823F4B2
:10215C004073FB603B681B681B02FA681343FB600F
:10216C007B6923F020037B613B689B681B017A69C8
:10217C0013437B617B681D4A93420DD17B6923F02D
:10218C0080037B613B68DB681B017A6913437B61CD
:10219C007B6923F040037B617B68144A934213D123
:1021AC003B6923F480633B613B6923F400633B612F
:1021BC003B685B699B003A6913433B613B689B69D5
:1021CC009B003A6913433B617B683A695A607B68B0
:1021DC00FA689A613B685A687B689A637B687A698B
:1021EC001A6200BF1C37BD4680BC7047002C0140F2
:1021FC0080B487B000AF786039607B681B6A23F4C9
:10220C0080727B681A627B681B6A7B617B685B6887
:10221C003B617B68DB69FB60FB6823F07003FB6050
:10222C00FB6823F00303FB603B681B68FA681343ED
:10223C00FB607B6923F400737B613B689B681B022A
:10224C007A6913437B617B681D4A93420DD17B698C
:10225C0023F400637B613B68DB681B027A691343E0
:10226C007B617B6923F480637B617B68144A9342B6
:10227C0013D13B6923F480533B613B6923F4005336
:10228C003B613B685B691B013A6913433B613B68EB
:10229C009B691B013A6913433B617B683A695A603D
:1022AC007B68FA68DA613B685A687B68DA637B683A
:1022BC007A691A6200BF1C37BD4680BC704700BFEC
:1022CC00002C014080B487B000AF786039607B6827
:1022DC001B6A23F480527B681A627B681B6A3B6121
:1022EC007B685B687B617B68DB69FB60FB6823F464
:1022FC00E043FB60FB6823F44073FB603B681B68A6
:10230C001B02FA681343FB603B6923F400533B61E7
:10231C003B689B681B033A6913433B617B680F4A1C
:10232C00934209D17B6923F480437B613B685B69F1
:10233C009B017A6913437B617B687A695A607B687D
:10234C00FA68DA613B685A687B681A647B683A6998
:10235C001A6200BF1C37BD4680BC7047002C014080
:10236C0080B487B000AFF860B9607A60FB681B6A14
:10237C007B61FB681B6A23F00102FB681A62FB6835
:10238C009B693B613B6923F0F0033B617B681B015C
:10239C003A6913433B617B6923F00A037B617A69D9
:1023AC00BB6813437B61FB683A699A61FB687A6985
:1023BC001A6200BF1C37BD4680BC704780B487B022
:1023CC0000AFF860B9607A60FB681B6A23F01002FA
:1023DC00FB681A62FB689B697B61FB681B6A3B614B
:1023EC007B6923F470437B617B681B037A6913431D
:1023FC007B613B6923F0A0033B61BB681B013A691D
:10240C0013433B61FB687A699A61FB683A691A620B
:10241C0000BF1C37BD4680BC704780B485B000AF90
:10242C00786039607B689B68FB60FB6823F0700305
:10243C00FB603A68FB68134343F00703FB607B685F
:10244C00FA689A6000BF1437BD4680BC704780B4F0
:10245C0087B000AFF860B9607A603B60FB689B683E
:10246C007B617B6923F47F437B613B681A027B6849
:10247C001A43BB6813437A6913437B61FB687A691F
:10248C009A6000BF1C37BD4680BC704780B485B0D5
:10249C0000AF786039607B6893F83C30012B01D138
:1024AC00022332E07B68012283F83C207B68022205
:1024BC0083F83D207B681B685B68FB607B681B684E
:1024CC009B68BB60FB6823F07003FB603B681B6878
:1024DC00FA681343FB60BB6823F08003BB603B6866
:1024EC005B68BA681343BB607B681B68FA685A6008
:1024FC007B681B68BA689A607B68012283F83D2070
:10250C007B68002283F83C20002318461437BD4614
:10251C0080BC704780B483B000AF786000BF0C37CC
:10252C00BD4680BC704780B483B000AF786000BFFC
:10253C000C37BD4680BC704703460244934200D121
:10254C00704703F8011BF9E770B500260C4D0D4CD4
:10255C00641BA410A64209D100F01AF800260A4DFB
:10256C000A4C641BA410A64205D170BD55F8043B5F
:10257C0098470136EEE755F8043B98470136F2E7E9
:10258C00D4250008D4250008D4250008D825000837
:10259C00F8B500BFF8BC08BC9E467047F8B500BF44
:0825AC00F8BC08BC9E46704714
:1025B40002030405060708090A0B0C0D0E0F101080
:1025C40000000000000000000102030406070809DF
:0425D40031010008C9
:0425D8000D010008E9
:0C25DC000024F4001000000001000000CA
:04000005080009BD29
:00000001FF
